:060000000A128A1110280B
:10000800FE00030E83160313AB000A08AC007F083A
:10001800AD000A128A1534280A128A111328831689
:100028000313DC01DD01DE01DF01E001E1018301F1
:100038000A168A11C82A831603133F088039C90093
:100048003F08C4004407CF00BE1F2B282C282D28AA
:100058004F144F0803193128322841284F0A031D2D
:10006800362837283F280030BF000030BE00003057
:10007800BD000030BC00BE1749280030BF0000306A
:10008800BE000030BD000030BC0043088039C40009
:100098004408C9064308C4004407CA00C21F5528BB
:1000A800562857284A144A0803195B285C286B28E5
:1000B8004A0A031D6028612869280030C3000030FF
:1000C800C2000030C1000030C000C21773280030E1
:1000D800C3000030C2000030C1000030C0004A0830
:1000E8000319772878287D284F08031D7C287D2848
:1000F80086280030BF000030BE000030BD00003050
:10010800BC00632B3C08AE0042080A128A11B927CA
:100118000A128A11831603132F08D5002E08D4005B
:100128005408C400C501C601C7014708CE004608E7
:10013800CD004508CC004408CB005508C400C501D3
:10014800C601C7014708D3004608D2004508D100B8
:100158004408D0003D08AE0041080A128A11B927A8
:100168000A128A11831603132F08D5002E08D4000B
:100178005408C400C501C601C7014408CB07450897
:1001880003110318013E0319CA28CC0746080311B6
:100198000318013E0319D128CD0747080311031896
:1001A800013E0319D828CE075508C400C501C60169
:1001B800C7014408D007450803110318013E031975
:1001C800E628D107460803110318013E0319ED2854
:1001D800D207470803110318013E0319F428D3076F
:1001E8003E08AE0040080A128A11B9270A128A117D
:1001F800831603132F08D5002E08D4005408C40012
:10020800C501C601C7014408CB07450803110318F7
:10021800013E03191029CC07460803110318013EB3
:1002280003191729CD07470803110318013E0319BD
:100238001E29CE075508C400C501C601C7014408D8
:10024800D007450803110318013E03192C29D107CB
:10025800460803110318013E03193329D20747083A
:1002680003110318013E03193A29D3070830C400C3
:100278000310CB0DCC0DCD0DCE0DC40B3C293D0884
:10028800AE0040080A128A11B9270A128A11831689
:1002980003132F08D5002E08D4005408C4005508AD
:1002A800C500C601C7014408CB0745080311031858
:1002B800013E03196029CC07460803110318013EC3
:1002C80003196729CD07470803110318013E0319CD
:1002D8006E29CE073C08AE0041080A128A11B927D8
:1002E8000A128A11831603132F08D5002E08D4008A
:1002F8005408C4005508C500C601C7014408CB0707
:10030800450803110318013E03198B29CC07460839
:1003180003110318013E03199229CD074708031159
:100328000318013E03199929CE070830C4000310A9
:10033800CB0DCC0DCD0DCE0DC40B9B293C08AE00CA
:1003480040080A128A11B9270A128A118316031360
:100358002F08D5002E08D4005408C4005508C5003D
:10036800C601C7014408CB07450803110318013E1D
:100378000319BF29CC07460803110318013E0319C6
:10038800C629CD07470803110318013E0319CD29D3
:10039800CE073D08AE0042080A128A11B9270A1290
:1003A8008A11831603132F08D5002E08D400540889
:1003B800C4005508C500C601C7014408D007450850
:1003C80003110318013E0319EA29D107460803114E
:1003D8000318013E0319F129D2074708031103182E
:1003E800013E0319F829D3073E08AE0041080A1256
:1003F8008A11B9270A128A11831603132F08D50008
:100408002E08D4005408C4005508C500C601C70109
:100418004408D007450803110318013E0319152A9B
:10042800D107460803110318013E03191C2AD207F5
:10043800470803110318013E0319232AD3073E086E
:10044800AE0042080A128A11B9270A128A118316C5
:1004580003132F08D5002E08D4005408C4005508EB
:10046800C500C601C70108300310C40DC50DC60D6F
:10047800C70DFF3E031D382A4408D007450803115D
:100488000318013E0319492AD10746080311031826
:10049800013E0319502AD207470803110318013EE9
:1004A8000319572AD3074B08C4004C08C5004D0848
:1004B800C6004E08C70018300310C70CC60CC50C80
:1004C800C40CFF3E031D602A4408D00745080311E9
:1004D8000318013E0319712AD107460803110318AE
:1004E800013E0319782AD207470803110318013E71
:1004F80003197F2AD3070830C4000310CB0DCC0D95
:10050800CD0DCE0DC40B812A4F084A07C400C50182
:10051800C50D4408823ED40045080318013EFF3E3D
:10052800D500B32A0130C4000310D00DD10DD20D6F
:10053800D30DC40B982ACE1FA22AA32AA42A50148A
:100548000130C4000310CB0DCC0DCD0DCE0DC40B66
:10055800A62AFF30D4070318D50AFF30D507D21FC3
:10056800B62AB72A962ACA01CE1FBB2ABC2AD82A7D
:10057800FF304B05C400FF304C05C500FF304D056A
:10058800C6007F304E05C7004708460445044404AA
:100598000319CF2AD02AD32ACA01CA0AD82A501C3A
:1005A800D62AD72AD82AD02A4A080319DC2ADD2ACB
:1005B8000E2B0130D007003003180130D10700306E
:1005C80003180130D207003003180130D307531C39
:1005D800EE2AEF2A0E2B5008C4005108C500520815
:1005E800C6005308C7000130C800470DC70CC60C29
:1005F800C50CC40CC80BF92A4708D3004608D2001A
:100608004508D1004408D0000130D4070318D50AA2
:100618000030D5075508803AFF0080307F02031D5F
:10062800172BFF305402031C1A2B1B2B262B7F3051
:1006380083160313D3008030D2000030D10000307D
:10064800D000572B831603135508803AFF008030DB
:100658007F02031D312B013054020318342B352B34
:10066800412B003083160313D3000030D200003032
:10067800D1000030D000C901572B8316031354084A
:10068800CF00FF30D005FF30D1057F30D2050030D4
:10069800D3054F1C502B512B522BD2174F08C40097
:1006A8000310440CD3004908C4004408D304530879
:1006B800BF005208BE005108BD005008BC00080029
:1006C800831203133D088039C7003D08C200420762
:1006D800CD00BC1F702B712B722B4D144D080319C4
:1006E800762B772B862B4D0A031D7B2B7C2B842B9B
:1006F8000030BD000030BC000030BB000030BA0044
:10070800BC178E2B0030BD000030BC000030BB0091
:100718000030BA0041088039C2004208C7064108C3
:10072800C2004207CC00C01F9A2B9B2B9C2B4C1459
:100738004C080319A02BA12BB02B4C0A031DA52B89
:10074800A62BAE2B0030C1000030C0000030BF0027
:100758000030BE00C017B82B0030C1000030C00008
:100768000030BF000030BE004C080319BC2BBD2B65
:10077800C22B4D08031DC12BC22BCB2B0030BD0053
:100788000030BC000030BB000030BA00A82E3A0888
:10079800F00040080A128A150D200A128A11710801
:1007A80083120313D3007008D2005208C200C30199
:1007B800C401C5014508CB004408CA004308C90064
:1007C8004208C8005308C200C301C401C501450856
:1007D800D1004408D0004308CF004208CE003B08AF
:1007E800F0003F080A128A150D200A128A117108B2
:1007F80083120313D3007008D2005208C200C30149
:10080800C401C5014208C807430803110318013E83
:1008180003190F2CC907440803110318013E0319D3
:10082800162CCA07450803110318013E03191D2C8D
:10083800CB075308C200C301C401C5014208CE0753
:10084800430803110318013E03192B2CCF07440852
:1008580003110318013E0319322CD0074508031170
:100868000318013E0319392CD1073C08F0003E0853
:100878000A128A150D200A128A11710883120313AD
:10088800D3007008D2005208C200C301C401C501D8
:100898004208C807430803110318013E0319552CE1
:1008A800C907440803110318013E03195C2CCA0741
:1008B800450803110318013E0319632CCB0753089D
:1008C800C200C301C401C5014208CE074308031191
:1008D8000318013E0319712CCF07440803110318AC
:1008E800013E0319782CD007450803110318013E6F
:1008F80003197F2CD1070830C2000310C80DC90D99
:10090800CA0DCB0DC20B812C3B08F0003E080A1221
:100918008A150D200A128A11710883120313D30055
:100928007008D2005208C2005308C300C401C501B0
:100938004208C807430803110318013E0319A52CF0
:10094800C907440803110318013E0319AC2CCA0750
:10095800450803110318013E0319B32CCB073A08C5
:10096800F0003F080A128A150D200A128A11710830
:1009780083120313D3007008D2005208C200530830
:10098800C300C401C5014208C8074308031103187E
:10099800013E0319D02CC907440803110318013E6E
:1009A8000319D72CCA07450803110318013E031978
:1009B800DE2CCB070830C2000310C80DC90DCA0DC4
:1009C800CB0DC20BE02C3A08F0003E080A128A153B
:1009D8000D200A128A11710883120313D3007008BC
:1009E800D2005208C2005308C300C401C50142081E
:1009F800C807430803110318013E0319042DC9074A
:100A0800440803110318013E03190B2DCA074508B2
:100A180003110318013E0319122DCB073B08F00000
:100A280040080A128A150D200A128A1171088312C9
:100A38000313D3007008D2005208C2005308C30041
:100A4800C401C5014208CE07430803110318013E3B
:100A580003192F2DCF07440803110318013E03196A
:100A6800362DD007450803110318013E03193D2D03
:100A7800D1073C08F0003F080A128A150D200A1217
:100A88008A11710883120313D3007008D200520828
:100A9800C2005308C300C401C5014208CE07430879
:100AA80003110318013E03195A2DCF0744080311F7
:100AB8000318013E0319612DD007450803110318D7
:100AC800013E0319682DD1073C08F00040080A12BE
:100AD8008A150D200A128A11710883120313D30094
:100AE8007008D2005208C2005308C300C401C501EF
:100AF80008300310C20DC30DC40DC50DFF3E031D04
:100B08007D2D4208CE07430803110318013E03193F
:100B18008E2DCF07440803110318013E0319952DA4
:100B2800D007450803110318013E03199C2DD1076E
:100B38004808C2004908C3004A08C4004B08C50059
:100B480018300310C50CC40CC30CC20CFF3E031DA7
:100B5800A52D4208CE07430803110318013E0319C7
:100B6800B62DCF07440803110318013E0319BD2D04
:100B7800D007450803110318013E0319C42DD107F6
:100B88000830C2000310C80DC90DCA0DCB0DC20B29
:100B9800C62D4D084C07C200C301C30D4208823E52
:100BA800D20043080318013EFF3ED300F82D013060
:100BB800C2000310CE0DCF0DD00DD10DC20BDD2D0F
:100BC800CB1FE72DE82DE92D4E140130C20003108C
:100BD800C80DC90DCA0DCB0DC20BEB2DFF30D207C6
:100BE8000318D30AFF30D307D01FFB2DFC2DDB2DB4
:100BF800CC01CB1F002E012E1D2EFF304805C20050
:100C0800FF304905C300FF304A05C4007F304B055B
:100C1800C50045084404430442040319142E152E44
:100C2800182ECC01CC0A1D2E4E1C1B2E1C2E1D2E40
:100C3800152E4C080319212E222E532E0130CE07D3
:100C4800003003180130CF07003003180130D007F7
:100C5800003003180130D107511C332E342E532E87
:100C68004E08C2004F08C3005008C4005108C50010
:100C78000130C600450DC50CC40CC30CC20CC60B14
:100C88003E2E4508D1004408D0004308CF00420852
:100C9800CE000130D2070318D30A0030D307530817
:100CA800803AFF0080307F02031D5C2EFF30520225
:100CB800031C5F2E602E6B2E7F3083120313D1002E
:100CC8008030D0000030CF000030CE009C2E831240
:100CD80003135308803AFF0080307F02031D762EED
:100CE800013052020318792E7A2E862E0030831294
:100CF8000313D1000030D0000030CF000030CE0008
:100D0800C7019C2E831203135208CD00FF30CE0575
:100D1800FF30CF057F30D0050030D1054D1C952E12
:100D2800962E972ED0174D08C2000310420CD10002
:100D38004708C2004208D1045108BD005008BC0051
:100D48004F08BB004E08BA00080083160317CD00F1
:100D5800831603131208013EAE0000300318013059
:100D6800AF00B001AF1BB0033008B10001300A1664
:100D78008A1173250A128A11831603133108C300D6
:100D88003008C2002F08C1002E08C00083160317C0
:100D9800460883160313BF008316031745088316F6
:100DA8000313BE0083160317440883160313BD00FC
:100DB80083160317430883160313BC000A128A110B
:100DC8001F200A128A11831603133F08831603177C
:100DD800CC00831603133E0883160317CB00831633
:100DE80003133D0883160317CA00831603133C0830
:100DF80083160317C9004C0883160313C300831610
:100E080003174B0883160313C200831603174A08F7
:100E180083160313C10083160317490883160313A7
:100E2800C0004030BF008030BE000030BD00003040
:100E3800BC000A128A111F200A128A118316031392
:100E48003F08831603179700831603133E0883167B
:100E580003179600831603133D088316031795009E
:100E6800831603133C08831603179400423093003B
:100E7800C830920000309100003090000A128A15A4
:100E8800FF200A128A11831603171308BC001208E0
:100E9800BB001108BA001008B9000A168A11C2214D
:100EA8000A128A11831603173A08CF003908CE00B0
:100EB8004D03031D602F612F812F4F08C8004E0876
:100EC800C7000310C80CC70C0310C80CC70C470890
:100ED800831203139500831603174E080339C700BE
:100EE800C70E831203131708831603174706CF3953
:100EF8004706831203139700B82F02304D06031DCF
:100F0800862F872FB82F4F08C8004E08C700031038
:100F1800C80CC70C0310C80CC70C4708831203136E
:100F28009B00831603174E080139C700C70E8312AA
:100F380003131D08831603174706EF394706831264
:100F480003139D00831603174E080239C700C70E06
:100F5800C70D831203131D08831603174706DF39CD
:100F68004706831203139D00080083160313B60077
:100F7800B201B3012E08B000B1013008B400310845
:100F8800B500361CC82FC92FCF2F3408B207031855
:100F9800B30A3508B30701300310B40DB50DFF3E91
:100FA800031DD02F0310B60C3608031DDC2FDD2FD0
:100FB800C52F3308AF003208AE00080083120313B0
:100FC8001F083F3980389F00831603139F121F1292
:100FD8009F13C330831203139F051F14C730831652
:0E0FE8000313AE00F72FAE0BF62FFA2F080002
:1010000083160313871181128111011181100110C0
:10101000F9308312031381000800F800F401F50190
:101020007008F200F3017208F6007308F700781CEC
:101030001A281B2821287608F4070318F50A7708D0
:10104000F50701300310F60DF70DFF3E031D2228B2
:101050000310F80C7808031D2E282F281728750870
:10106000F1007408F0000800831203130C1F3928E4
:101070003A28EB281F0C83160313A900290C0F39FB
:10108000003A031D442845287E28A201FF30A30012
:101090006430A4000030A5005830A6000230A7003C
:1010A000831203131E080A168A110D240A128A15C8
:1010B000831603132308DF002208DE005F08AA005E
:1010C0005E08A9000310AA0CA90C0310AA0CA90C15
:1010D0002908831203139500831603135E0803394E
:1010E000A900A90E831203131708831603132906F8
:1010F000CF392906831203139700E92883120313BB
:101100001F0C83160313A900290C0F39023A031D83
:101110008A288B28D628A201FF30A3006430A400BF
:101120000030A5005830A6000230A7008312031338
:101130001E080A168A110D240A128A158316031333
:101140002308DD002208DC005D08AA005C08A90075
:101150000310AA0CA90C0310AA0CA90C29088312CD
:1011600003139B00831603135C080139A900A90E21
:10117000831203131D08831603132906EF3929066A
:10118000831203139D00831603135C080239A90020
:10119000A90EA90D831203131D0883160313290634
:1011A000DF392906831203139D00E92883120313F4
:1011B0001F0C83160313A900290C0F39033A031DD2
:1011C000E228E328E928831203131E088316031379
:1011D000E10083120C130B1DEE28EF28F4280A16E9
:1011E0008A118C210A128A15831603132D08FF0019
:1011F0002C088A002B0E8300FE0E7E0E090083163B
:101200000317170880399C00170883160313D600AC
:10121000560783160317A300961F0F2910291129BB
:10122000231423080319152916292629230A031D27
:101230001A291B292329003097000030960000301E
:10124000950000309400961797012E2900309700E2
:10125000003096000030950000309400130880396B
:1012600083160313D6005608831603179C0613082B
:1012700083160313D600560783160317A400921F84
:1012800042294329442924142408031948294929B7
:101290005929240A031D4D294E295629003093004F
:1012A00000309200003091000030900092179301BE
:1012B000612900309300003092000030910000302E
:1012C00090001308120411041004031D68296929F1
:1012D00086290030970000309600003095000030DD
:1012E0009400803096047F3097041C088316031303
:1012F000D60056088316031797041708930016089C
:10130000920015089100140890004F2B2308031D2C
:101310008A298B29942900309300003092000030F4
:101320009100003090004F2B230883160313D60042
:10133000D7015708D900831603172408831603130F
:101340005602D800031CD90358087F3E83160317A2
:101350009D008316031359080318013E003E8316AF
:1013600003179E0017089B0016089A00150899009D
:101370001408980000309700003096000030950067
:10138000003094000030A2000030A1000030A00026
:1013900000309F00A4012E2A24080319D029D12946
:1013A000032A013083160313D60003108316031794
:1013B000980D990D9A0D9B0D83160313D60BD52905
:1013C0000130D600031083160317940D950D960D6A
:1013D000970D83160313D60BE22983160317A21F5A
:1013E000F229F329F4291414013083160313D600CB
:1013F0000310831603179F0DA00DA10DA20D8316D8
:101400000313D60BF8298316031713081B02031DB9
:10141000132A12081A02031D132A11081902031DA8
:10142000132A10081802031C162A172A262A221724
:10143000100898021108031C110F99021208031CCE
:10144000120F9A021308031C130F9B02013083161C
:101450000313D600560883160317A4071A30240274
:10146000031C332A342ACC291B081A041904180433
:1014700003193B2A3C2A6B2A1F146B2A013083165E
:101480000313D600031083160317940D950D960DC4
:10149000970D83160313D60B422A83160317A21F38
:1014A000522A532A542A1414013083160313D600E7
:1014B0000310831603179F0DA00DA10DA20D831617
:1014C0000313D60B582AFF30831603179D07031802
:1014D0009E0AFF309E07961F6E2A6F2A3E2AA4019D
:1014E000A21F732A742AA22AFF301F058316031332
:1014F000D600FF3083160317200583160313D70089
:10150000FF3083160317210583160313D8007F309D
:1015100083160317220583160313D90059085804AC
:10152000570456040319952A962A9B2A83160317F3
:10153000A401A40AA22A83160317141CA02AA12A14
:10154000A22A962A24080319A62AA72AF42A0130D7
:10155000940700300318013095070030031801305C
:1015600096070030031801309707171CB82AB92ACC
:10157000F42A140883160313D600831603171508DC
:1015800083160313D7008316031716088316031355
:10159000D80083160317170883160313D9000130E8
:1015A000DA00590DD90CD80CD70CD60CDA0BD12A8D
:1015B00059088316031797008316031358088316D8
:1015C0000317960083160313570883160317950015
:1015D00083160313560883160317940001309D07E2
:1015E00003189E0A00309E071E08803AFF008030D4
:1015F0007F02031DFD2AFF301D02031C002B012B5F
:101600000F2BFF30831603179D0000309E00003023
:10161000970000309600003095000030940083164B
:1016200003171E08803AFF0080307F02031D1A2B2B
:1016300001301D0203181D2B1E2B2B2B83160317A5
:101640009D019E010030970000309600003095000B
:10165000003094009C01831603171D08A300231C6F
:10166000322B332B352B96173D2B7F3083160313EC
:10167000D60056088316031796052308831603130E
:10168000D6000310560C8316031797001C08831608
:101690000313D60056088316031797047D29080004
:1016A0008312031357088039E4005708DC005C07F5
:1016B000E600D61F5C2B5D2B5E2B661466080319B3
:1016C000622B632B732B660A031D672B682B702B11
:1016D0000030D7000030D6000030D5000030D400F4
:1016E000D617D7017B2B0030D7000030D600003052
:1016F000D5000030D4005B088039E5006508640639
:101700000319832B842B852B64175B08DC005C0793
:10171000E500DA1F8C2B8D2B8E2B651465080319C1
:10172000922B932BA32B650A031D972B982BA02B91
:101730000030DB000030DA000030D9000030D80083
:10174000DA17DB01AB2B0030DB000030DA000030B1
:10175000D9000030D800660865020318B02BB12B01
:10176000D72B641FB42BB52BB92B8030DC005C0861
:10177000E4066608E7006508E6006708E500540827
:10178000E7005808D4006708D8005508E700590852
:10179000D5006708D9005608E7005A08D600670840
:1017A000DA005708E7005B08D7006708DB00E701AD
:1017B0006508DC00DD015D08DF0066085C02DE0014
:1017C000031CDF035F08803AFF0080307F02031DA7
:1017D000EB2B1A305E02031CEE2BEF2B262C831210
:1017E00003135708560455045404031DF82BFA2B11
:1017F0000130FB2B0030E7000030D7000030D6006E
:101800000030D5000030D4006508E6002E2C671C9F
:101810000A2C0B2C122C6708DC0003105C0C01381E
:10182000E700142C0310E70C541C172C182C192C4F
:10183000E7170130DC00570DD70CD60CD50CD40CB3
:10184000DC0B1B2C0130DC005C08E6078312031361
:1018500065086602031C2D2C2E2C072C641B312CD2
:10186000322C7B2C6608031D362C372C402C003084
:10187000D7000030D6000030D5000030D400A72DAE
:101880005808D407590803110318013E0319492CBD
:10189000D5075A0803110318013E0319502CD60727
:1018A0005B0803110318013E0319572CD707571C77
:1018B0005A2C5B2C2F2D671C5E2C5F2C662C670826
:1018C000DC0003105C0C0138E700682C0310E70C07
:1018D000541C6B2C6C2C6D2CE7170130DC00570D61
:1018E000D70CD60CD50CD40CDC0B6F2C0130DC00E3
:1018F0005C08E6072F2D5708803AFF005B08803A06
:101900007F02031D8D2C5A085602031D8D2C590889
:101910005502031D8D2C580854020318902C912C4D
:10192000E92CFF30DC00FF30DD00FF30DE00FF304F
:10193000DF005808E0005908E1005A08E2005B089F
:10194000E3005408E0025508031C550FA82CA92CED
:10195000E1025608031C560FAE2CAF2CE2025708CA
:10196000031C570FB42CB52CE3026008DC07610898
:101970000318610FBC2CBD2CDD0762080318620F31
:10198000C22CC32CDE0763080318630ADF075F0855
:10199000D7005E08D6005D08D5005C08D400803012
:1019A000DC005C08E406E709E70A6708031DD92C98
:1019B000DA2CF72C0130D407003003180130D5079A
:1019C000003003180130D607003003180130D70764
:1019D000F72C5808D4025908031C590FD5025A088D
:1019E000031C5A0FD6025B08031C5B0FD702570873
:1019F000560455045404031DFE2CFF2C2B2D6708A0
:101A0000031D032D042D2B2D0030D7000030D600F0
:101A10000030D5000030D400A72D0130DC000310C9
:101A2000D40DD50DD60DD70DDC0B0F2DE71F192DBD
:101A30001A2D1B2D5414671C1E2D1F2D222D03142F
:101A4000E70D242D0310E70D66080319282D292D15
:101A50002B2D0130E602D61F2E2D2F2D0D2DE50149
:101A6000E71F332D342D422D67087F390319392D97
:101A70003A2D3D2DE501E50A422D541C402D412D06
:101A8000422D3A2D65080319462D472D7B2D013037
:101A9000D407003003180130D50700300318013097
:101AA000D607003003180130D707571C582D592D81
:101AB0007B2D5408DC005508DD005608DE00570871
:101AC000DF000130E0005F0DDF0CDE0CDD0CDC0C14
:101AD000E00B632D5F08D7005E08D6005D08D500D7
:101AE0005C08D400660A0319762D772D7B2D013012
:101AF000DC005C08E607660A03197F2D802D852D22
:101B00006608031D842D852D932D0030D7000030ED
:101B1000D6000030D5000030D4006608031D912D9A
:101B2000922D932DE401661C962D972D992DD61795
:101B30009D2D7F30DC005C08D6056608DC000310B4
:101B40005C0CD700E41FA52DA62DA72DD7170800E4
:101B50008316031728088039B5002808AD002D0723
:101B6000B700A71FB42DB52DB62D371437080319AC
:101B7000BA2DBB2DCB2D370A031DBF2DC02DC82D6F
:101B80000030A8000030A7000030A6000030A500FB
:101B9000A717A801D32D0030A8000030A7000030FF
:101BA000A6000030A5002C088039B600360835069E
:101BB0000319DB2DDC2DDD2D35172C08AD002D078D
:101BC000B600AB1FE42DE52DE62D361436080319BB
:101BD000EA2DEB2DFB2D360A031DEF2DF02DF82DF0
:101BE0000030AC000030AB000030AA000030A9008B
:101BF000AB17AC01032E0030AC000030AB0000305E
:101C0000AA000030A900370836020318082E092E52
:101C10002F2E351F0C2E0D2E112E8030AD002D08CD
:101C2000B5063708B8003608B7003808B6002508EA
:101C3000B8002908A5003808A9002608B8002A0815
:101C4000A6003808AA002708B8002B08A700380803
:101C5000AB002808B8002C08A8003808AC00B80170
:101C60003608AD00AE012E08B00037082D02AF00D7
:101C7000031CB0033008803AFF0080307F02031D50
:101C8000432E1A302F02031C462E472E7E2E83161B
:101C900003172808270426042504031D502E522E5E
:101CA0000130532E0030B8000030A8000030A700EB
:101CB0000030A6000030A5003608B700862E381C7C
:101CC000622E632E6A2E3808AD0003102D0C0138E9
:101CD000B8006C2E0310B80C251C6F2E702E712EC0
:101CE000B8170130AD00280DA80CA70CA60CA50C48
:101CF000AD0B732E0130AD002D08B7078316031707
:101D000036083702031C852E862E5F2E351B892E42
:101D10008A2ED32E3708031D8E2E8F2E982E00303C
:101D2000A8000030A7000030A6000030A500FF2F5B
:101D30002908A5072A0803110318013E0319A12E3B
:101D4000A6072B0803110318013E0319A82EA707A5
:101D50002C0803110318013E0319AF2EA807281CF5
:101D6000B22EB32E872F381CB62EB72EBE2E3808B3
:101D7000AD0003102D0C0138B800C02E0310B80CB4
:101D8000251CC32EC42EC52EB8170130AD00280D5A
:101D9000A80CA70CA60CA50CAD0BC72E0130AD00EE
:101DA0002D08B707872F2808803AFF002C08803AB3
:101DB0007F02031DE52E2B082702031DE52E2A08AE
:101DC0002602031DE52E290825020318E82EE92E18
:101DD000412FFF30AD00FF30AE00FF30AF00FF30CD
:101DE000B0002908B1002A08B2002B08B3002C0863
:101DF000B4002508B1022608031C260F002F012F6E
:101E0000B2022708031C270F062F072FB30228084A
:101E1000031C280F0C2F0D2FB4023108AD07320818
:101E20000318320F142F152FAE0733080318330F82
:101E30001A2F1B2FAF0734080318340AB0073008D5
:101E4000A8002F08A7002E08A6002D08A5008030A6
:101E5000AD002D08B506B809B80A3808031D312FA2
:101E6000322F4F2F0130A507003003180130A6078D
:101E7000003003180130A707003003180130A8070D
:101E80004F2F2908A5022A08031C2A0FA6022B0897
:101E9000031C2B0FA7022C08031C2C0FA8022808D8
:101EA000270426042504031D562F572F832F380897
:101EB000031D5B2F5C2F832F0030A8000030A7008C
:101EC0000030A6000030A500FF2F0130AD00031048
:101ED000A50DA60DA70DA80DAD0B672FB81F712F6F
:101EE000722F732F2514381C762F772F7A2F031417
:101EF000B80D7C2F0310B80D37080319802F812FE0
:101F0000832F0130B702A71F862F872F652FB601B9
:101F1000B81F8B2F8C2F9A2F38087F390319912FD8
:101F2000922F952FB601B60A9A2F251C982F992F1C
:101F30009A2F922F360803199E2F9F2FD32F0130EF
:101F4000A507003003180130A60700300318013040
:101F5000A707003003180130A807281CB02FB12FA5
:101F6000D32F2508AD002608AE002708AF002808AB
:101F7000B0000130B100300DB00CAF0CAE0CAD0CA8
:101F8000B10BBB2F3008A8002F08A7002E08A60011
:101F90002D08A500370A0319CE2FCF2FD32F0130DC
:101FA000AD002D08B707370A0319D72FD82FDD2F1B
:101FB0003708031DDC2FDD2FEB2F0030A800003089
:101FC000A7000030A6000030A5003708031DE92F48
:101FD000EA2FEB2FB501371CEE2FEF2FF12FA717AC
:101FE000F52F7F30AD002D08A7053708AD00031091
:101FF0002D0CA800B51FFD2FFE2FFF2FA8170800DE
:102318000130F000700883160313E00760086102BB
:10232800031C972998299C298312031387159F2931
:102338008312031387110B11F930810008008316EB
:102348000317890108140815881583160313051443
:102358000515851583120313850187018316031359
:102368000F088F3960388F000F140B118B168B17DD
:102378000B170C17831203130C1308000310831692
:1023880003173B0D3C0DC2004208031DCC29CD2983
:10239800D6290030BC000030BB000030BA00003045
:1023A800B900392A3908BD003A08BE003B08BF0009
:1023B8003C08C0001F300310C00CBF0CBE0CBD0C85
:1023C800FF3E031DDF293D08C100BB17FF30B905DB
:1023D800FF30BA05FF30BB050030BC059630C2029D
:1023E800C21FF729F829122A4208803A973E031893
:1023F800FE29FF29002ACD2901300310BC0CBB0C93
:10240800BA0CB90CFF3E031D012A0130BD003D087E
:10241800C207031D102A112A002A292A2030420245
:10242800031C172A182A242ACD290130BD000310BD
:10243800B90DBA0DBB0DBC0DBD0B1B2A0130C20274
:102448004208031D282A292A192A410803192D2A76
:102458002E2A392AB909BA09BB09BC09B90A0319CC
:10246800BA0A0319BB0A0319BC0A0800031083122D
:1024780003136A0D6B0D83160313A1002108031DB6
:10248800462A472A522A003083120313EB000030F1
:10249800EA000030E9000030E800C72A831203137D
:1024A8006808EC006908ED006A08EE006B08EF00A8
:1024B8001F300310EF0CEE0CED0CEC0CFF3E031D6F
:1024C8005D2A6C0883160313A00083120313EA170E
:1024D800FF30E805FF30E905FF30EA050030EB057D
:1024E800963083160313A102A11F7B2A7C2A9A2AFD
:1024F8002108803A973E0318822A832A842A472A89
:102508000130031083120313EB0CEA0CE90CE80CFE
:10251800FF3E031D852A0130EC006C088316031367
:10252800A107031D982A992A842AB52A2030210256
:10253800031C9F2AA02AB02A472A013083120313BA
:10254800EC000310E80DE90DEA0DEB0DEC0BA52AE4
:10255800013083160313A1022108031DB42AB52AEA
:10256800A12A20080319B92ABA2AC72A83120313F1
:10257800E809E909EA09EB09E80A0319E90A03196C
:10258800EA0A0319EB0A08000A168A11A3210A1697
:102598008A110A128A11E2270A168A110A128A1562
:1025A80000200A168A11403083160317C6008030AF
:1025B800C5000030C4000030C30001300A168A117B
:1025C80062230A168A11403083160317C60080302A
:1025D800C5000030C4000030C30002300A168A115A
:1025E80062230A168A11433083160317C6007A300D
:1025F800C5000030C4000030C30001300A128A113F
:10260800A9260A168A11433083160317C6007A30A2
:10261800C5000030C4000030C30002300A128A111D
:10262800A9260A168A11831203139F181C2B1D2B27
:10263800172B1F0C83160317D000500C0F39003AC4
:10264800031D272B282B2F2B831203131F08C33995
:1026580008389F00542B831203131F0C831603178B
:10266800D000500C0F39023A031D3B2B3C2B432B57
:10267800831203131F08C3390C389F00542B83128D
:1026880003131F0C83160317D000500C0F39033A9D
:10269800031D4F2B502B542BC330831203139F055C
:1026A800831203139F14053083160317D000D00B31
:1026B8005B2B5E2B172B0A128A1110288316031323
:1026C800DB0083160317460883160313C30083161B
:1026D8000317450883160313C2008316031744081B
:1026E80083160313C10083160317430883160313C5
:1026F800C0004530BF007A30BE000030BD00003059
:10270800BC000A128A111F200A168A1183160313A5
:102718003F08831603179700831603133E08831692
:1027280003179600831603133D08831603179500B5
:10273800831603133C088316031794004230930052
:102748008030920000309100003090000A128A1503
:10275800FF200A168A11831603171308AC00120803
:10276800AB001108AA001008A900BF30A8008030EB
:10277800A7000030A6000030A5000A128A15A82577
:102788000A168A11831603172808BC002708BB00FD
:102798002608BA002508B9000A168A11C2210A16A5
:1027A8008A118316031739088316031392008312BC
:1027B80003138C100330920412158C1CE42BE52BA8
:1027C800E12B8C10831603135B03031DEC2BED2BFD
:1027D800FB2B87148312031397013F3097051708C3
:1027E800F0390C3897008316031387100C2C02302D
:1027F8005B06031D002C012C0C2C071583120313F8
:102808009D011D08F0390C389D008316031307112C
:10281800080083160313A8002408F0002508F10017
:10282800F201F30100300A168A11BB240A168A1134
:10283800730883120313DB007208DA007108D900E9
:102848007008D8008316031324082602F000250810
:10285800031C250A2702F100F201F30100300A16D1
:102868008A11BB240A168A11730883120313A7005E
:102878007208A6007108A5007008A4008316031347
:1028880022082302F000F101031CF103F201F11BFD
:10289800F2037208F30001300A168A11BB240A16E3
:1028A8008A11730883120313A3007208A200710827
:1028B800A1007008A0000A168A112D260A168A118E
:1028C800831203132308C1002208C0002108BF0097
:1028D8002008BE008316031322082802F000F10125
:1028E800031CF103F201F11BF2037208F30001303B
:1028F8000A168A11BB240A168A1173088312031355
:10290800BD007208BC007108BB007008BA000A124A
:102918008A1164230A168A11831203133D08D7000B
:102928003C08D6003B08D5003A08D4000A128A159C
:1029380050230A168A11831203135708EB0056080E
:10294800EA005508E9005408E8000A168A113A22F4
:102958000A168A1183120313690883160313A30046
:1029680083120313680883160313A2000800F800F3
:1029780078080319C02CC12CD52CF31FC42CC52CE6
:10298800D52C7009FA007109FB007209FC00730963
:10299800FD00FA0A0319FB0A0319FC0A0319FD0AC8
:1029A800DD2C7308FD007208FC007108FB0070083C
:1029B800FA007308720471047004031DE42CE52CFA
:1029C800EE2C0030F3000030F2000030F10000304F
:1029D800F000722D9630F900FE2C0130F4007408D6
:1029E800F90701300310FD0CFC0CFB0CFA0CFF3E40
:1029F800031DF62CFE307D05031D032D042DF12C3F
:102A0800202D0130F4007408F9070130FA0700306E
:102A180003180130FB07003003180130FC070030B1
:102A280003180130FD0701300310FD0CFC0CFB0CF2
:102A3800FA0CFF3E031D182DFF307D05031D252DC3
:102A4800262D052D322D0130F9020130F400031036
:102A5800FA0DFB0DFC0DFD0DF40B2B2DFC1B352D7C
:102A6800362D3C2D0230790203183B2D3C2D272DA5
:102A780079183F2D402D482DFF30FA05FF30FB0512
:102A88007F30FC05FF30FD050310F90C7908F400D0
:102A9800F501F601F70118300310F40DF50DF60DE8
:102AA800F70DFF3E031D502D7408FA047508FB044A
:102AB8007608FC047708FD0478080319642D652D51
:102AC8006A2DF31F682D692D6A2DFD177D08F30007
:102AD8007C08F2007B08F1007A08F00008008316F1
:102AE8000313B600360803197A2D7B2D8F2DB11FDD
:102AF8007E2D7F2D8F2D2E09B8002F09B9003009A2
:102B0800BA003109BB00B80A0319B90A0319BA0A8D
:102B18000319BB0A972D3108BB003008BA002F08EB
:102B2800B9002E08B800310830042F042E04031D04
:102B38009E2D9F2DA82D0030B1000030B000003030
:102B4800AF000030AE002C2E9630B700B82D013003
:102B5800B2003208B70701300310BB0CBA0CB90C2D
:102B6800B80CFF3E031DB02DFE303B05031DBD2DE7
:102B7800BE2DAB2DDA2D0130B2003208B707013077
:102B8800B807003003180130B907003003180130C6
:102B9800BA07003003180130BB0701300310BB0C23
:102BA800BA0CB90CB80CFF3E031DD22DFF303B0503
:102BB800031DDF2DE02DBF2DEC2D0130B7020130B4
:102BC800B2000310B80DB90DBA0DBB0DB20BE52D4F
:102BD800BA1BEF2DF02DF62D023037020318F52D14
:102BE800F62DE12D3718F92DFA2D022EFF30B805F4
:102BF800FF30B9057F30BA05FF30BB050310B70CAD
:102C08003708B200B301B401B50118300310B20D92
:102C1800B30DB40DB50DFF3E031D0A2E3208B804DE
:102C28003308B9043408BA043508BB043608031954
:102C38001E2E1F2E242EB11F222E232E242EBB170C
:102C48003B08B1003A08B0003908AF003808AE00B8
:102C580008008312031327088039B1002708A80049
:102C68002807B800A61F392E3A2E3B2E38143808EC
:102C780003193F2E402E502E380A031D442E452E90
:102C88004D2E0030A7000030A6000030A50000300F
:102C9800A400A617A701582E0030A7000030A600F0
:102CA8000030A5000030A40023088039A8002808B7
:102CB800B1062308A8002807B900A21F642E652EB4
:102CC800662E3914390803196A2E6B2E7B2E390AA1
:102CD800031D6F2E702E782E0030A3000030A20046
:102CE8000030A1000030A000A217A301832E0030FD
:102CF800A3000030A2000030A1000030A00023088B
:102D0800220421042004031D8A2E8B2EA42E0030B9
:102D1800A7000030A6000030A5000030A4008030D5
:102D2800A6047F30A7043108A8002808A7042708AC
:102D3800A3002608A2002508A1002408A000FF2F50
:102D48003808031DA82EA92EB22E0030A30000308B
:102D5800A2000030A1000030A000FF2F3808A80012
:102D6800A9012908AB0039082802AA00031CAB03F3
:102D78002A087F3EB2002B080318013E003EB3002C
:102D88002708B0002608AF002508AE002408AD00CB
:102D98000030A7000030A6000030A5000030A400D5
:102DA8000030B7000030B6000030B5000030B40085
:102DB800B901282F39080319E22EE32E032F013019
:102DC800A8000310AD0DAE0DAF0DB00DA80BE52E8C
:102DD8000130A8000310A40DA50DA60DA70DA80B82
:102DE800EE2EB71FF82EF92EFA2E24140130A80063
:102DF8000310B40DB50DB60DB70DA80BFC2E2308A6
:102E08003002031D112F22082F02031D112F210844
:102E18002E02031D112F20082D02031C142F152F1D
:102E2800242F37172008AD022108031C210FAE02FA
:102E38002208031C220FAF022308031C230FB00231
:102E48000130A8002808B9071A303902031C2D2FB1
:102E58002E2FDE2E30082F042E042D040319352FB3
:102E6800362F552F3414552F0130A8000310A40D08
:102E7800A50DA60DA70DA80B3A2FB71F442F452F58
:102E8800462F24140130A8000310B40DB50DB60D5B
:102E9800B70DA80B482FFF30B2070318B30AFF304D
:102EA800B307A61F582F592F382FB901B71F5D2F09
:102EB8005E2F7A2FFF303405A800FF303505A900B2
:102EC800FF303605AA007F303705AB002B082A04EF
:102ED800290428040319712F722F752FB901B90A13
:102EE8007A2F241C782F792F7A2F722F39080319FB
:102EF8007E2F7F2FB02F0130A40700300318013038
:102F0800A507003003180130A60700300318013068
:102F1800A707271C902F912FB02F2408A800250859
:102F2800A9002608AA002708AB000130AC002B0D29
:102F3800AB0CAA0CA90CA80CAC0B9B2F2B08A70058
:102F48002A08A6002908A5002808A4000130B2070D
:102F58000318B30A0030B3073308803AFF00803003
:102F68007F02031DB92FFF303202031CBC2FBD2F77
:102F7800CB2FFF3083120313B2000030B3000030B0
:102F8800A7000030A6000030A5000030A40083127E
:102F980003133308803AFF0080307F02031DD62FC9
:102FA800013032020318D92FDA2FE72F83120313C7
:102FB800B201B3010030A7000030A6000030A50020
:102FC8000030A400B101831203133208B800381C82
:102FD800EE2FEF2FF12FA617F52F7F30A800280826
:102FE800A6053808A8000310280CA7003108A80077
:082FF8002808A7049B2E080025
:08400000FF3FFF3FFF3FFF3FC0
:04400E00D420FF3F7C
:00000001FF
