:060000000A128A1110280B
:10000800FE00030E83160313AB000A08AC007F083A
:10001800AD000A128A159A2E0A128A11132883161D
:100028000313B001B101B201B30183010A128A11AD
:100038008D2F831203133D088039C7003D08C20085
:100048004207CD00BC1F29282A282B284D144D080B
:1000580003192F2830283F284D0A031D3428352836
:100068003D280030BD000030BC000030BB0000302F
:10007800BA00BC1747280030BD000030BC00003073
:10008800BB000030BA0041088039C2004208C706E8
:100098004108C2004207CC00C01F532854285528E5
:1000A8004C144C08031959285A2869284C0A031D6E
:1000B8005E285F2867280030C1000030C00000308B
:1000C800BF000030BE00C01771280030C1000030EA
:1000D800C0000030BF000030BE004C08031975286E
:1000E80076287B284D08031D7A287B288428003031
:1000F800BD000030BC000030BB000030BA00612BEE
:100108003A08F00040080A128A15E3240A128A11F4
:10011800710883120313D3007008D2005208C2007A
:10012800C301C401C5014508CB004408CA004308FF
:10013800C9004208C8005308C200C301C401C50170
:100148004508D1004408D0004308CF004208CE003B
:100158003B08F0003F080A128A15E3240A128A11A4
:10016800710883120313D3007008D2005208C2002A
:10017800C301C401C5014208C80743080311031895
:10018800013E0319C828C907440803110318013E92
:100198000319CF28CA07450803110318013E03199C
:1001A800D628CB075308C200C301C401C5014208C1
:1001B800CE07430803110318013E0319E428CF07AB
:1001C800440803110318013E0319EB28D00745081A
:1001D80003110318013E0319F228D1073C08F00067
:1001E8003E080A128A15E3240A128A11710883123A
:1001F8000313D3007008D2005208C200C301C4011F
:10020800C5014208C807430803110318013E031932
:100218000E29C907440803110318013E03191529BB
:10022800CA07450803110318013E03191C29CB0707
:100238005308C200C301C401C5014208CE074308E0
:1002480003110318013E03192A29CF074408031193
:100258000318013E03193129D00745080311031873
:10026800013E03193829D1070830C2000310C80D10
:10027800C90DCA0DCB0DC20B3A293B08F0003E0848
:100288000A128A15E3240A128A11710883120313C9
:10029800D3007008D2005208C2005308C300C4013A
:1002A800C5014208C807430803110318013E031992
:1002B8005E29C907440803110318013E031965297B
:1002C800CA07450803110318013E03196C29CB0717
:1002D8003A08F0003F080A128A15E3240A128A1124
:1002E800710883120313D3007008D2005208C200A9
:1002F8005308C300C401C5014208C80743080311D5
:100308000318013E03198929C90744080311031872
:10031800013E03199029CA07450803110318013E35
:1003280003199729CB070830C2000310C80DC90D5F
:10033800CA0DCB0DC20B99293A08F0003E080A12E3
:100348008A15E3240A128A11710883120313D30051
:100358007008D2005208C2005308C300C401C50186
:100368004208C807430803110318013E0319BD29B1
:10037800C907440803110318013E0319C429CA0711
:10038800450803110318013E0319CB29CB073B0885
:10039800F00040080A128A15E3240A128A1171082B
:1003A80083120313D3007008D2005208C200530806
:1003B800C300C401C5014208CE074308031103184E
:1003C800013E0319E829CF07440803110318013E29
:1003D8000319EF29D007450803110318013E031933
:1003E800F629D1073C08F0003F080A128A15E324D1
:1003F8000A128A11710883120313D3007008D200FD
:100408005208C2005308C300C401C5014208CE0700
:10041800430803110318013E0319132ACF074408A0
:1004280003110318013E03191A2AD00745080311BE
:100438000318013E0319212AD1073C08F00040089F
:100448000A128A15E3240A128A1171088312031307
:10045800D3007008D2005208C2005308C300C40178
:10046800C50108300310C20DC30DC40DC50DFF3EF4
:10047800031D362A4208CE07430803110318013E1C
:100488000319472ACF07440803110318013E03192B
:100498004E2AD007450803110318013E0319552AAF
:1004A800D1074808C2004908C3004A08C4004B08DD
:1004B800C50018300310C50CC40CC30CC20CFF3E99
:1004C800031D5E2A4208CE07430803110318013EA4
:1004D80003196F2ACF07440803110318013E0319B3
:1004E800762AD007450803110318013E03197D2A0F
:1004F800D1070830C2000310C80DC90DCA0DCB0DB5
:10050800C20B7F2A4D084C07C200C301C30D420825
:10051800823ED20043080318013EFF3ED300B12AB1
:100528000130C2000310CE0DCF0DD00DD10DC20B7E
:10053800962ACB1FA02AA12AA22A4E140130C20053
:100548000310C80DC90DCA0DCB0DC20BA42AFF306C
:10055800D2070318D30AFF30D307D01FB42AB52A0D
:10056800942ACC01CB1FB92ABA2AD62AFF304805CB
:10057800C200FF304905C300FF304A05C4007F3080
:100588004B05C50045084404430442040319CD2A19
:10059800CE2AD12ACC01CC0AD62A4E1CD42AD52A56
:1005A800D62ACE2A4C080319DA2ADB2A0C2B01306A
:1005B800CE07003003180130CF0700300318013090
:1005C800D007003003180130D107511CEC2AED2A5E
:1005D8000C2B4E08C2004F08C3005008C400510835
:1005E800C5000130C600450DC50CC40CC30CC20CB7
:1005F800C60BF72A4508D1004408D0004308CF00AD
:100608004208CE000130D2070318D30A0030D307BE
:100618005308803AFF0080307F02031D152BFF30FE
:100628005202031C182B192B242B7F30831203131F
:10063800D1008030D0000030CF000030CE00552BE4
:10064800831203135308803AFF0080307F02031D92
:100658002F2B013052020318322B332B3F2B003043
:1006680083120313D1000030D0000030CF000030D7
:10067800CE00C701552B831203135208CD00FF305B
:10068800CE05FF30CF057F30D0050030D1054D1C99
:100698004E2B4F2B502BD0174D08C2000310420C85
:1006A800D1004708C2004208D1045108BD005008D3
:1006B800BC004F08BB004E08BA00080083120313A1
:1006C80057088039E4005708DC005C07E600D61FAD
:1006D8006E2B6F2B702B661466080319742B752B01
:1006E800852B660A031D792B7A2B822B0030D700C5
:1006F8000030D6000030D5000030D400D617D7011E
:100708008D2B0030D7000030D6000030D5000030E7
:10071800D4005B088039E500650864060319952B49
:10072800962B972B64175B08DC005C07E500DA1F43
:100738009E2B9F2BA02B651465080319A42BA52BB2
:10074800B52B650A031DA92BAA2BB22B0030DB00A1
:100758000030DA000030D9000030D800DA17DB01A9
:10076800BD2B0030DB000030DA000030D90000304B
:10077800D800660865020318C22BC32BE92B641F37
:10078800C62BC72BCB2B8030DC005C08E406660840
:10079800E7006508E6006708E5005408E700580820
:1007A800D4006708D8005508E7005908D50067083D
:1007B800D9005608E7005A08D6006708DA00570833
:1007C800E7005B08D7006708DB00E7016508DC0085
:1007D800DD015D08DF0066085C02DE00031CDF0344
:1007E8005F08803AFF0080307F02031DFD2B1A301E
:1007F8005E02031C002C012C382C831203135708AB
:10080800560455045404031D0A2C0C2C01300D2CDD
:100818000030E7000030D7000030D6000030D500A7
:100828000030D4006508E600402C671C1C2C1D2CE9
:10083800242C6708DC0003105C0C0138E700262C28
:100848000310E70C541C292C2A2C2B2CE7170130F9
:10085800DC00570DD70CD60CD50CD40CDC0B2D2C8A
:100868000130DC005C08E6078312031365086602A2
:10087800031C3F2C402C192C641B432C442C8D2C1E
:100888006608031D482C492C522C0030D700003034
:10089800D6000030D5000030D400B92D5808D40750
:1008A800590803110318013E03195B2CD5075A0890
:1008B80003110318013E0319622CD6075B080311C4
:1008C8000318013E0319692CD707571C6C2C6D2C93
:1008D800412D671C702C712C782C6708DC000310E4
:1008E8005C0C0138E7007A2C0310E70C541C7D2CB3
:1008F8007E2C7F2CE7170130DC00570DD70CD60C67
:10090800D50CD40CDC0B812C0130DC005C08E6072C
:10091800412D5708803AFF005B08803A7F02031D8B
:100928009F2C5A085602031D9F2C59085502031D77
:100938009F2C580854020318A22CA32CFB2CFF3020
:10094800DC00FF30DD00FF30DE00FF30DF0058083C
:10095800E0005908E1005A08E2005B08E300540887
:10096800E0025508031C550FBA2CBB2CE1025608AF
:10097800031C560FC02CC12CE2025708031C570F4A
:10098800C62CC72CE3026008DC0761080318610F56
:10099800CE2CCF2CDD0762080318620FD42CD52C7F
:1009A800DE0763080318630ADF075F08D7005E08DD
:1009B800D6005D08D5005C08D4008030DC005C08F7
:1009C800E406E709E70A6708031DEB2CEC2C092D60
:1009D8000130D407003003180130D5070030031860
:1009E8000130D607003003180130D707092D580801
:1009F800D4025908031C590FD5025A08031C5A0F70
:100A0800D6025B08031C5B0FD7025708560455042F
:100A18005404031D102D112D3D2D6708031D152DA0
:100A2800162D3D2D0030D7000030D6000030D500FF
:100A38000030D400B92D0130DC000310D40DD50DE1
:100A4800D60DD70DDC0B212DE71F2B2D2C2D2D2D91
:100A58005414671C302D312D342D0314E70D362D19
:100A68000310E70D660803193A2D3B2D3D2D013083
:100A7800E602D61F402D412D1F2DE501E71F452D0C
:100A8800462D542D67087F3903194B2D4C2D4F2DBA
:100A9800E501E50A542D541C522D532D542D4C2D8F
:100AA80065080319582D592D8D2D0130D4070030B4
:100AB80003180130D507003003180130D60700307D
:100AC80003180130D707571C6A2D6B2D8D2D54083C
:100AD800DC005508DD005608DE005708DF0001304D
:100AE800E0005F0DDF0CDE0CDD0CDC0CE00B752D7F
:100AF8005F08D7005E08D6005D08D5005C08D40002
:100B0800660A0319882D892D8D2D0130DC005C08BB
:100B1800E607660A0319912D922D972D6608031D85
:100B2800962D972DA52D0030D7000030D600003027
:100B3800D5000030D4006608031DA32DA42DA52DD3
:100B4800E401661CA82DA92DAB2DD617AF2D7F303B
:100B5800DC005C08D6056608DC0003105C0CD700D6
:100B6800E41FB72DB82DB92DD7170800831203132A
:100B780027088039B1002708A8002807B800A61F51
:100B8800C62DC72DC82D381438080319CC2DCD2DE6
:100B9800DD2D380A031DD12DD22DDA2D0030A70006
:100BA8000030A6000030A5000030A400A617A70159
:100BB800E52D0030A7000030A6000030A500003069
:100BC800A40023088039A8002808B1062308A80033
:100BD8002807B900A21FF12DF22DF32D3914390879
:100BE8000319F72DF82D082E390A031DFC2DFD2DAC
:100BF800052E0030A3000030A2000030A100003014
:100C0800A000A217A301102E0030A3000030A200FC
:100C18000030A1000030A000230822042104200491
:100C2800031D172E182E312E0030A7000030A60005
:100C38000030A5000030A4008030A6047F30A7044F
:100C48003108A8002808A7042708A3002608A2003E
:100C58002508A1002408A0008C2F3808031D352E74
:100C6800362E3F2E0030A3000030A2000030A10035
:100C78000030A0008C2F3808A800A9012908AB0073
:100C880039082802AA00031CAB032A087F3EB200D9
:100C98002B080318013E003EB3002708B0002608C1
:100CA800AF002508AE002408AD000030A7000030D2
:100CB800A6000030A5000030A4000030B7000030C6
:100CC800B6000030B5000030B400B901B52E3908BF
:100CD80003196F2E702E902E0130A8000310AD0D51
:100CE800AE0DAF0DB00DA80B722E0130A800031089
:100CF800A40DA50DA60DA70DA80B7B2EB71F852E3D
:100D0800862E872E24140130A8000310B40DB50DCB
:100D1800B60DB70DA80B892E23083002031D9E2E91
:100D280022082F02031D9E2E21082E02031D9E2E2F
:100D380020082D02031CA12EA22EB12E3717200841
:100D4800AD022108031C210FAE022208031C220F4A
:100D5800AF022308031C230FB0020130A8002808A3
:100D6800B9071A303902031CBA2EBB2E6B2E300875
:100D78002F042E042D040319C22EC32EE22E341480
:100D8800E22E0130A8000310A40DA50DA60DA70D95
:100D9800A80BC72EB71FD12ED22ED32E2414013064
:100DA800A8000310B40DB50DB60DB70DA80BD52EC0
:100DB800FF30B2070318B30AFF30B307A61FE52EAA
:100DC800E62EC52EB901B71FEA2EEB2E072FFF30EE
:100DD8003405A800FF303505A900FF303605AA0004
:100DE8007F303705AB002B082A042904280403198F
:100DF800FE2EFF2E022FB901B90A072F241C052F3A
:100E0800062F072FFF2E390803190B2F0C2F3D2F04
:100E18000130A407003003180130A507003003187B
:100E28000130A607003003180130A707271C1D2F23
:100E38001E2F3D2F2408A8002508A9002608AA006F
:100E48002708AB000130AC002B0DAB0CAA0CA90C89
:100E5800A80CAC0B282F2B08A7002A08A6002908E5
:100E6800A5002808A4000130B2070318B30A00300F
:100E7800B3073308803AFF0080307F02031D462FF6
:100E8800FF303202031C492F4A2F582FFF3083129C
:100E98000313B2000030B3000030A7000030A600F2
:100EA8000030A5000030A400831203133308803AF1
:100EB800FF0080307F02031D632F013032020318C8
:100EC800662F672F742F83120313B201B30100300A
:100ED800A7000030A6000030A5000030A400B10132
:100EE800831203133208B800381C7B2F7C2F7E2F07
:100EF800A617822F7F30A8002808A6053808A80062
:100F08000310280CA7003108A8002808A704282ED9
:100F180008000A128A150A250A128A110A128A1169
:100F2800DB270A128A110A128A1532250A128A1137
:100F3800831203139F18A12FA22F9C2F1F0C831617
:100F48000313AF002F0C0F39003A031DAC2FAD2F40
:100F5800BB2F831203131F08C33904389F000530C1
:100F680083160313AF00AF0BB72FBA2FCD2F831201
:100F780003131F0C83160313AF002F0C0F39013A0C
:100F8800031DC72FC82FCD2FC330831203139F050E
:100F9800B32F053083160313AF00AF0BD12FD42F17
:100FA800831203139F149C2F0A128A11102883128C
:100FB80003131F083F3980389F00831603139F12BD
:100FC8001F129F13C330831203139F051F14C730CA
:100FD80083160313AE00F02FAE0BEF2FF32F08008C
:1019C600F800F401F5017008F200F3017208F60060
:1019D6007308F700781CF02CF12CF72C7608F40726
:1019E6000318F50A7708F50701300310F60DF70D11
:1019F600FF3E031DF82C0310F80C7808031D042D78
:101A0600052DED2C7508F1007408F000080083160A
:101A16000317890108148814831603130514851403
:101A26008312031385018701831603130F088F3969
:101A360060388F000F148112811101158114011471
:101A4600D8308312031381000B118B128B170B17DF
:101A5600831603130C17831203130C130800831643
:101A6600031387140715F9309200831203139701A5
:101A76009D013F3097051708F0390C3897001D086F
:101A8600F0390C389D003E3095001708CF392038C4
:101A960097003E309B001D129D128C10033092045D
:101AA60012158C1C572D582D542D8C10831603138C
:101AB6000711871008000310831203136A0D6B0DBC
:101AC60083160313A1002108031D6A2D6B2D762DA5
:101AD600003083120313EB000030EA000030E90007
:101AE6000030E800EB2D831203136808EC00690848
:101AF600ED006A08EE006B08EF001F300310EF0CD4
:101B0600EE0CED0CEC0CFF3E031D812D6C088316CC
:101B16000313A00083120313EA17FF30E805FF3012
:101B2600E905FF30EA050030EB059630831603130E
:101B3600A102A11F9F2DA02DBE2D2108803A973E00
:101B46000318A62DA72DA82D6B2D01300310831287
:101B56000313EB0CEA0CE90CE80CFF3E031DA92D60
:101B66000130EC006C0883160313A107031DBC2D7E
:101B7600BD2DA82DD92D20302102031CC32DC42D27
:101B8600D42D6B2D013083120313EC000310E80DE6
:101B9600E90DEA0DEB0DEC0BC92D0130831603138D
:101BA600A1022108031DD82DD92DC52D2008031902
:101BB600DD2DDE2DEB2D83120313E809E909EA0971
:101BC600EB09E80A0319E90A0319EA0A0319EB0AF9
:101BD600080083160313A8002408F0002508F10066
:101BE600F201F30100300A128A1548270A128A15F3
:101BF600730883120313DB007208DA007108D90038
:101C06007008D8008316031324082602F00025085E
:101C1600031C250A2702F100F201F30100300A1223
:101C26008A1548270A128A15730883120313A70018
:101C36007208A6007108A5007008A4008316031395
:101C460022082302F000F101031CF103F201F11B4B
:101C5600F2037208F30001300A128A1548270A12A5
:101C66008A15730883120313A3007208A200710871
:101C7600A1007008A0000A128A11BA250A128A1554
:101C8600831203132308C1002208C0002108BF00E5
:101C96002008BE008316031322082802F000F10173
:101CA600031CF103F201F11BF2037208F300013089
:101CB6000A128A1548270A128A1573088312031313
:101CC600BD007208BC007108BB007008BA000A1299
:101CD6008A111D200A128A15831203133D08D700A4
:101CE6003C08D6003B08D5003A08D4000A128A11EF
:101CF60062230A128A15831203135708EB0056084B
:101D0600EA005508E9005408E8000A128A155E251B
:101D16000A128A1583120313690883160313A30094
:101D260083120313680883160313A20008008312A4
:101D360003130C1F9F2EA02E3D2F1F0C831603137B
:101D4600A900290C0F39003A031DAA2EAB2EE42E4A
:101D5600A201FF30A3006430A4000030A5008A3041
:101D6600A6000230A700831203131E080A128A1562
:101D7600EC250A128A15831603132308B3002208DA
:101D8600B2003308AA003208A9000310AA0CA90C55
:101D96000310AA0CA90C29088312031395008316B5
:101DA600031332080339A900A90E83120313170877
:101DB600831603132906CF392906831203139700C6
:101DC6003B2F831203131F0C83160313A900290C40
:101DD6000F39013A031DF02EF12E3B2FA201FF30E1
:101DE600A3006430A4000030A5008A30A6000230AB
:101DF600A700831203131E080A128A15EC250A127D
:101E06008A15831603132308B1002208B00031088F
:101E1600AA003008A9000310AA0CA90C0310AA0CEA
:101E2600A90C2908831203139B0083160313300899
:101E36000139A900A90E831203131D088316031383
:101E46002906EF392906831203139D00831603130F
:101E560030080239A900A90EA90D831203131D0823
:101E6600831603132906DF392906831203139D00FF
:101E760083120C13831603132D08FF002C088A0007
:101E86002B0E8300FE0E7E0E0900F800780803195B
:101E96004D2F4E2F622FF31F512F522F622F700995
:101EA600FA007109FB007209FC007309FD00FA0AC9
:101EB6000319FB0A0319FC0A0319FD0A6A2F7308A2
:101EC600FD007208FC007108FB007008FA00730838
:101ED600720471047004031D712F722F7B2F003062
:101EE600F3000030F2000030F1000030F000FF2F68
:101EF6009630F9008B2F0130F4007408F907013091
:101F06000310FD0CFC0CFB0CFA0CFF3E031D832F8B
:101F1600FE307D05031D902F912F7E2FAD2F0130B2
:101F2600F4007408F9070130FA070030031801308D
:101F3600FB07003003180130FC070030031801309E
:101F4600FD0701300310FD0CFC0CFB0CFA0CFF3EE8
:101F5600031DA52FFF307D05031DB22FB32F922F32
:101F6600BF2F0130F9020130F4000310FA0DFB0D0A
:101F7600FC0DFD0DF40BB82FFC1BC22FC32FC92F70
:101F8600023079020318C82FC92FB42F7918CC2F25
:101F9600CD2FD52FFF30FA05FF30FB057F30FC052E
:101FA600FF30FD050310F90C7908F400F501F60180
:101FB600F70118300310F40DF50DF60DF70DFF3E81
:101FC600031DDD2F7408FA047508FB047608FC046B
:101FD6007708FD0478080319F12FF22FF72FF31F66
:101FE600F52FF62FF72FFD177D08F3007C08F2007A
:0A1FF6007B08F1007A08F0000800F3
:08400000FF3FFF3FFF3FFF3FC0
:04400E00D420FF3F7C
:00000001FF
